{
  "_format": "hh-sol-artifact-1",
  "contractName": "MyNFT",
  "sourceName": "contracts/MyNFT.sol",
  "abi": [
    {
      "inputs": [],
      "stateMutability": "nonpayable",
      "type": "constructor"
    },
    {
      "anonymous": false,
      "inputs": [
        {
          "indexed": true,
          "internalType": "address",
          "name": "owner",
          "type": "address"
        },
        {
          "indexed": true,
          "internalType": "address",
          "name": "approved",
          "type": "address"
        },
        {
          "indexed": true,
          "internalType": "uint256",
          "name": "tokenId",
          "type": "uint256"
        }
      ],
      "name": "Approval",
      "type": "event"
    },
    {
      "anonymous": false,
      "inputs": [
        {
          "indexed": true,
          "internalType": "address",
          "name": "owner",
          "type": "address"
        },
        {
          "indexed": true,
          "internalType": "address",
          "name": "operator",
          "type": "address"
        },
        {
          "indexed": false,
          "internalType": "bool",
          "name": "approved",
          "type": "bool"
        }
      ],
      "name": "ApprovalForAll",
      "type": "event"
    },
    {
      "anonymous": false,
      "inputs": [
        {
          "indexed": false,
          "internalType": "uint256",
          "name": "_fromTokenId",
          "type": "uint256"
        },
        {
          "indexed": false,
          "internalType": "uint256",
          "name": "_toTokenId",
          "type": "uint256"
        }
      ],
      "name": "BatchMetadataUpdate",
      "type": "event"
    },
    {
      "anonymous": false,
      "inputs": [
        {
          "indexed": false,
          "internalType": "uint256",
          "name": "_tokenId",
          "type": "uint256"
        }
      ],
      "name": "MetadataUpdate",
      "type": "event"
    },
    {
      "anonymous": false,
      "inputs": [
        {
          "indexed": true,
          "internalType": "address",
          "name": "from",
          "type": "address"
        },
        {
          "indexed": true,
          "internalType": "address",
          "name": "to",
          "type": "address"
        },
        {
          "indexed": true,
          "internalType": "uint256",
          "name": "tokenId",
          "type": "uint256"
        }
      ],
      "name": "Transfer",
      "type": "event"
    },
    {
      "inputs": [
        {
          "internalType": "address",
          "name": "to",
          "type": "address"
        },
        {
          "internalType": "uint256",
          "name": "tokenId",
          "type": "uint256"
        }
      ],
      "name": "approve",
      "outputs": [],
      "stateMutability": "nonpayable",
      "type": "function"
    },
    {
      "inputs": [
        {
          "internalType": "address",
          "name": "owner",
          "type": "address"
        }
      ],
      "name": "balanceOf",
      "outputs": [
        {
          "internalType": "uint256",
          "name": "",
          "type": "uint256"
        }
      ],
      "stateMutability": "view",
      "type": "function"
    },
    {
      "inputs": [
        {
          "internalType": "uint256",
          "name": "tokenId",
          "type": "uint256"
        }
      ],
      "name": "getApproved",
      "outputs": [
        {
          "internalType": "address",
          "name": "",
          "type": "address"
        }
      ],
      "stateMutability": "view",
      "type": "function"
    },
    {
      "inputs": [
        {
          "internalType": "address",
          "name": "owner",
          "type": "address"
        },
        {
          "internalType": "address",
          "name": "operator",
          "type": "address"
        }
      ],
      "name": "isApprovedForAll",
      "outputs": [
        {
          "internalType": "bool",
          "name": "",
          "type": "bool"
        }
      ],
      "stateMutability": "view",
      "type": "function"
    },
    {
      "inputs": [
        {
          "internalType": "address",
          "name": "recipient",
          "type": "address"
        },
        {
          "internalType": "string",
          "name": "tokenURI",
          "type": "string"
        }
      ],
      "name": "mintNFT",
      "outputs": [
        {
          "internalType": "uint256",
          "name": "",
          "type": "uint256"
        }
      ],
      "stateMutability": "nonpayable",
      "type": "function"
    },
    {
      "inputs": [],
      "name": "name",
      "outputs": [
        {
          "internalType": "string",
          "name": "",
          "type": "string"
        }
      ],
      "stateMutability": "view",
      "type": "function"
    },
    {
      "inputs": [
        {
          "internalType": "uint256",
          "name": "tokenId",
          "type": "uint256"
        }
      ],
      "name": "ownerOf",
      "outputs": [
        {
          "internalType": "address",
          "name": "",
          "type": "address"
        }
      ],
      "stateMutability": "view",
      "type": "function"
    },
    {
      "inputs": [
        {
          "internalType": "address",
          "name": "from",
          "type": "address"
        },
        {
          "internalType": "address",
          "name": "to",
          "type": "address"
        },
        {
          "internalType": "uint256",
          "name": "tokenId",
          "type": "uint256"
        }
      ],
      "name": "safeTransferFrom",
      "outputs": [],
      "stateMutability": "nonpayable",
      "type": "function"
    },
    {
      "inputs": [
        {
          "internalType": "address",
          "name": "from",
          "type": "address"
        },
        {
          "internalType": "address",
          "name": "to",
          "type": "address"
        },
        {
          "internalType": "uint256",
          "name": "tokenId",
          "type": "uint256"
        },
        {
          "internalType": "bytes",
          "name": "data",
          "type": "bytes"
        }
      ],
      "name": "safeTransferFrom",
      "outputs": [],
      "stateMutability": "nonpayable",
      "type": "function"
    },
    {
      "inputs": [
        {
          "internalType": "address",
          "name": "operator",
          "type": "address"
        },
        {
          "internalType": "bool",
          "name": "approved",
          "type": "bool"
        }
      ],
      "name": "setApprovalForAll",
      "outputs": [],
      "stateMutability": "nonpayable",
      "type": "function"
    },
    {
      "inputs": [
        {
          "internalType": "bytes4",
          "name": "interfaceId",
          "type": "bytes4"
        }
      ],
      "name": "supportsInterface",
      "outputs": [
        {
          "internalType": "bool",
          "name": "",
          "type": "bool"
        }
      ],
      "stateMutability": "view",
      "type": "function"
    },
    {
      "inputs": [],
      "name": "symbol",
      "outputs": [
        {
          "internalType": "string",
          "name": "",
          "type": "string"
        }
      ],
      "stateMutability": "view",
      "type": "function"
    },
    {
      "inputs": [
        {
          "internalType": "uint256",
          "name": "tokenId",
          "type": "uint256"
        }
      ],
      "name": "tokenURI",
      "outputs": [
        {
          "internalType": "string",
          "name": "",
          "type": "string"
        }
      ],
      "stateMutability": "view",
      "type": "function"
    },
    {
      "inputs": [],
      "name": "totalSupply",
      "outputs": [
        {
          "internalType": "uint256",
          "name": "",
          "type": "uint256"
        }
      ],
      "stateMutability": "view",
      "type": "function"
    },
    {
      "inputs": [
        {
          "internalType": "address",
          "name": "from",
          "type": "address"
        },
        {
          "internalType": "address",
          "name": "to",
          "type": "address"
        },
        {
          "internalType": "uint256",
          "name": "tokenId",
          "type": "uint256"
        }
      ],
      "name": "transferFrom",
      "outputs": [],
      "stateMutability": "nonpayable",
      "type": "function"
    },
    {
      "inputs": [
        {
          "internalType": "address",
          "name": "from",
          "type": "address"
        },
        {
          "internalType": "address",
          "name": "to",
          "type": "address"
        },
        {
          "internalType": "uint256",
          "name": "tokenId",
          "type": "uint256"
        }
      ],
      "name": "transferNFT",
      "outputs": [],
      "stateMutability": "nonpayable",
      "type": "function"
    }
  ],
  "bytecode": "0x60806040523480156200001157600080fd5b506040518060400160405280600581526020017f4d794e46540000000000000000000000000000000000000000000000000000008152506040518060400160405280600381526020017f4e4654000000000000000000000000000000000000000000000000000000000081525081600090816200008f919062000324565b508060019081620000a1919062000324565b5050506200040b565b600081519050919050565b7f4e487b7100000000000000000000000000000000000000000000000000000000600052604160045260246000fd5b7f4e487b7100000000000000000000000000000000000000000000000000000000600052602260045260246000fd5b600060028204905060018216806200012c57607f821691505b602082108103620001425762000141620000e4565b5b50919050565b60008190508160005260206000209050919050565b60006020601f8301049050919050565b600082821b905092915050565b600060088302620001ac7fffffffffffffffffffffffffffffffffffffffffffffffffffffffffffffffff826200016d565b620001b886836200016d565b95508019841693508086168417925050509392505050565b6000819050919050565b6000819050919050565b600062000205620001ff620001f984620001d0565b620001da565b620001d0565b9050919050565b6000819050919050565b6200022183620001e4565b6200023962000230826200020c565b8484546200017a565b825550505050565b600090565b6200025062000241565b6200025d81848462000216565b505050565b5b8181101562000285576200027960008262000246565b60018101905062000263565b5050565b601f821115620002d4576200029e8162000148565b620002a9846200015d565b81016020851015620002b9578190505b620002d1620002c8856200015d565b83018262000262565b50505b505050565b600082821c905092915050565b6000620002f960001984600802620002d9565b1980831691505092915050565b6000620003148383620002e6565b9150826002028217905092915050565b6200032f82620000aa565b67ffffffffffffffff8111156200034b576200034a620000b5565b5b62000357825462000113565b6200036482828562000289565b600060209050601f8311600181146200039c576000841562000387578287015190505b62000393858262000306565b86555062000403565b601f198416620003ac8662000148565b60005b82811015620003d657848901518255600182019150602085019450602081019050620003af565b86831015620003f65784890151620003f2601f891682620002e6565b8355505b6001600288020188555050505b505050505050565b612b51806200041b6000396000f3fe608060405234801561001057600080fd5b50600436106101005760003560e01c806369e9cae111610097578063b88d4fde11610066578063b88d4fde146102ab578063c87b56dd146102c7578063e985e9c5146102f7578063eacabe141461032757610100565b806369e9cae11461022557806370a082311461024157806395d89b4114610271578063a22cb4651461028f57610100565b806318160ddd116100d357806318160ddd1461019f57806323b872dd146101bd57806342842e0e146101d95780636352211e146101f557610100565b806301ffc9a71461010557806306fdde0314610135578063081812fc14610153578063095ea7b314610183575b600080fd5b61011f600480360381019061011a9190611a40565b610357565b60405161012c9190611a88565b60405180910390f35b61013d6103b8565b60405161014a9190611b33565b60405180910390f35b61016d60048036038101906101689190611b8b565b61044a565b60405161017a9190611bf9565b60405180910390f35b61019d60048036038101906101989190611c40565b610490565b005b6101a76105a7565b6040516101b49190611c8f565b60405180910390f35b6101d760048036038101906101d29190611caa565b6105b8565b005b6101f360048036038101906101ee9190611caa565b610618565b005b61020f600480360381019061020a9190611b8b565b610638565b60405161021c9190611bf9565b60405180910390f35b61023f600480360381019061023a9190611caa565b6106be565b005b61025b60048036038101906102569190611cfd565b6106ce565b6040516102689190611c8f565b60405180910390f35b610279610785565b6040516102869190611b33565b60405180910390f35b6102a960048036038101906102a49190611d56565b610817565b005b6102c560048036038101906102c09190611ecb565b61082d565b005b6102e160048036038101906102dc9190611b8b565b61088f565b6040516102ee9190611b33565b60405180910390f35b610311600480360381019061030c9190611f4e565b6109a1565b60405161031e9190611a88565b60405180910390f35b610341600480360381019061033c919061202f565b610a35565b60405161034e9190611c8f565b60405180910390f35b6000634906490660e01b7bffffffffffffffffffffffffffffffffffffffffffffffffffffffff1916827bffffffffffffffffffffffffffffffffffffffffffffffffffffffff191614806103b157506103b082610a6d565b5b9050919050565b6060600080546103c7906120ba565b80601f01602080910402602001604051908101604052809291908181526020018280546103f3906120ba565b80156104405780601f1061041557610100808354040283529160200191610440565b820191906000526020600020905b81548152906001019060200180831161042357829003601f168201915b5050505050905090565b600061045582610b4f565b6004600083815260200190815260200160002060009054906101000a900473ffffffffffffffffffffffffffffffffffffffff169050919050565b600061049b82610638565b90508073ffffffffffffffffffffffffffffffffffffffff168373ffffffffffffffffffffffffffffffffffffffff160361050b576040517f08c379a00000000000000000000000000000000000000000000000000000000081526004016105029061215d565b60405180910390fd5b8073ffffffffffffffffffffffffffffffffffffffff1661052a610b9a565b73ffffffffffffffffffffffffffffffffffffffff161480610559575061055881610553610b9a565b6109a1565b5b610598576040517f08c379a000000000000000000000000000000000000000000000000000000000815260040161058f906121ef565b60405180910390fd5b6105a28383610ba2565b505050565b60006105b36007610c5b565b905090565b6105c96105c3610b9a565b82610c69565b610608576040517f08c379a00000000000000000000000000000000000000000000000000000000081526004016105ff90612281565b60405180910390fd5b610613838383610cfe565b505050565b6106338383836040518060200160405280600081525061082d565b505050565b60008061064483610ff7565b9050600073ffffffffffffffffffffffffffffffffffffffff168173ffffffffffffffffffffffffffffffffffffffff16036106b5576040517f08c379a00000000000000000000000000000000000000000000000000000000081526004016106ac906122ed565b60405180910390fd5b80915050919050565b6106c9838383610cfe565b505050565b60008073ffffffffffffffffffffffffffffffffffffffff168273ffffffffffffffffffffffffffffffffffffffff160361073e576040517f08c379a00000000000000000000000000000000000000000000000000000000081526004016107359061237f565b60405180910390fd5b600360008373ffffffffffffffffffffffffffffffffffffffff1673ffffffffffffffffffffffffffffffffffffffff168152602001908152602001600020549050919050565b606060018054610794906120ba565b80601f01602080910402602001604051908101604052809291908181526020018280546107c0906120ba565b801561080d5780601f106107e25761010080835404028352916020019161080d565b820191906000526020600020905b8154815290600101906020018083116107f057829003601f168201915b5050505050905090565b610829610822610b9a565b8383611034565b5050565b61083e610838610b9a565b83610c69565b61087d576040517f08c379a000000000000000000000000000000000000000000000000000000000815260040161087490612281565b60405180910390fd5b610889848484846111a0565b50505050565b606061089a82610b4f565b60006006600084815260200190815260200160002080546108ba906120ba565b80601f01602080910402602001604051908101604052809291908181526020018280546108e6906120ba565b80156109335780601f1061090857610100808354040283529160200191610933565b820191906000526020600020905b81548152906001019060200180831161091657829003601f168201915b5050505050905060006109446111fc565b9050600081510361095957819250505061099c565b60008251111561098e5780826040516020016109769291906123db565b6040516020818303038152906040529250505061099c565b61099784611213565b925050505b919050565b6000600560008473ffffffffffffffffffffffffffffffffffffffff1673ffffffffffffffffffffffffffffffffffffffff16815260200190815260200160002060008373ffffffffffffffffffffffffffffffffffffffff1673ffffffffffffffffffffffffffffffffffffffff16815260200190815260200160002060009054906101000a900460ff16905092915050565b6000610a41600761127b565b6000610a4d6007610c5b565b9050610a598482611291565b610a6381846114ae565b8091505092915050565b60007f80ac58cd000000000000000000000000000000000000000000000000000000007bffffffffffffffffffffffffffffffffffffffffffffffffffffffff1916827bffffffffffffffffffffffffffffffffffffffffffffffffffffffff19161480610b3857507f5b5e139f000000000000000000000000000000000000000000000000000000007bffffffffffffffffffffffffffffffffffffffffffffffffffffffff1916827bffffffffffffffffffffffffffffffffffffffffffffffffffffffff1916145b80610b485750610b4782611552565b5b9050919050565b610b58816115bc565b610b97576040517f08c379a0000000000000000000000000000000000000000000000000000000008152600401610b8e906122ed565b60405180910390fd5b50565b600033905090565b816004600083815260200190815260200160002060006101000a81548173ffffffffffffffffffffffffffffffffffffffff021916908373ffffffffffffffffffffffffffffffffffffffff160217905550808273ffffffffffffffffffffffffffffffffffffffff16610c1583610638565b73ffffffffffffffffffffffffffffffffffffffff167f8c5be1e5ebec7d5bd14f71427d1e84f3dd0314c0f7b2291e5b200ac8c7c3b92560405160405180910390a45050565b600081600001549050919050565b600080610c7583610638565b90508073ffffffffffffffffffffffffffffffffffffffff168473ffffffffffffffffffffffffffffffffffffffff161480610cb75750610cb681856109a1565b5b80610cf557508373ffffffffffffffffffffffffffffffffffffffff16610cdd8461044a565b73ffffffffffffffffffffffffffffffffffffffff16145b91505092915050565b8273ffffffffffffffffffffffffffffffffffffffff16610d1e82610638565b73ffffffffffffffffffffffffffffffffffffffff1614610d74576040517f08c379a0000000000000000000000000000000000000000000000000000000008152600401610d6b90612471565b60405180910390fd5b600073ffffffffffffffffffffffffffffffffffffffff168273ffffffffffffffffffffffffffffffffffffffff1603610de3576040517f08c379a0000000000000000000000000000000000000000000000000000000008152600401610dda90612503565b60405180910390fd5b610df083838360016115fd565b8273ffffffffffffffffffffffffffffffffffffffff16610e1082610638565b73ffffffffffffffffffffffffffffffffffffffff1614610e66576040517f08c379a0000000000000000000000000000000000000000000000000000000008152600401610e5d90612471565b60405180910390fd5b6004600082815260200190815260200160002060006101000a81549073ffffffffffffffffffffffffffffffffffffffff02191690556001600360008573ffffffffffffffffffffffffffffffffffffffff1673ffffffffffffffffffffffffffffffffffffffff168152602001908152602001600020600082825403925050819055506001600360008473ffffffffffffffffffffffffffffffffffffffff1673ffffffffffffffffffffffffffffffffffffffff16815260200190815260200160002060008282540192505081905550816002600083815260200190815260200160002060006101000a81548173ffffffffffffffffffffffffffffffffffffffff021916908373ffffffffffffffffffffffffffffffffffffffff160217905550808273ffffffffffffffffffffffffffffffffffffffff168473ffffffffffffffffffffffffffffffffffffffff167fddf252ad1be2c89b69c2b068fc378daa952ba7f163c4a11628f55a4df523b3ef60405160405180910390a4610ff28383836001611603565b505050565b60006002600083815260200190815260200160002060009054906101000a900473ffffffffffffffffffffffffffffffffffffffff169050919050565b8173ffffffffffffffffffffffffffffffffffffffff168373ffffffffffffffffffffffffffffffffffffffff16036110a2576040517f08c379a00000000000000000000000000000000000000000000000000000000081526004016110999061256f565b60405180910390fd5b80600560008573ffffffffffffffffffffffffffffffffffffffff1673ffffffffffffffffffffffffffffffffffffffff16815260200190815260200160002060008473ffffffffffffffffffffffffffffffffffffffff1673ffffffffffffffffffffffffffffffffffffffff16815260200190815260200160002060006101000a81548160ff0219169083151502179055508173ffffffffffffffffffffffffffffffffffffffff168373ffffffffffffffffffffffffffffffffffffffff167f17307eab39ab6107e8899845ad3d59bd9653f200f220920489ca2b5937696c31836040516111939190611a88565b60405180910390a3505050565b6111ab848484610cfe565b6111b784848484611609565b6111f6576040517f08c379a00000000000000000000000000000000000000000000000000000000081526004016111ed90612601565b60405180910390fd5b50505050565b606060405180602001604052806000815250905090565b606061121e82610b4f565b60006112286111fc565b905060008151116112485760405180602001604052806000815250611273565b8061125284611790565b6040516020016112639291906123db565b6040516020818303038152906040525b915050919050565b6001816000016000828254019250508190555050565b600073ffffffffffffffffffffffffffffffffffffffff168273ffffffffffffffffffffffffffffffffffffffff1603611300576040517f08c379a00000000000000000000000000000000000000000000000000000000081526004016112f79061266d565b60405180910390fd5b611309816115bc565b15611349576040517f08c379a0000000000000000000000000000000000000000000000000000000008152600401611340906126d9565b60405180910390fd5b6113576000838360016115fd565b611360816115bc565b156113a0576040517f08c379a0000000000000000000000000000000000000000000000000000000008152600401611397906126d9565b60405180910390fd5b6001600360008473ffffffffffffffffffffffffffffffffffffffff1673ffffffffffffffffffffffffffffffffffffffff16815260200190815260200160002060008282540192505081905550816002600083815260200190815260200160002060006101000a81548173ffffffffffffffffffffffffffffffffffffffff021916908373ffffffffffffffffffffffffffffffffffffffff160217905550808273ffffffffffffffffffffffffffffffffffffffff16600073ffffffffffffffffffffffffffffffffffffffff167fddf252ad1be2c89b69c2b068fc378daa952ba7f163c4a11628f55a4df523b3ef60405160405180910390a46114aa600083836001611603565b5050565b6114b7826115bc565b6114f6576040517f08c379a00000000000000000000000000000000000000000000000000000000081526004016114ed9061276b565b60405180910390fd5b806006600084815260200190815260200160002090816115169190612937565b507ff8e1a15aba9398e019f0b49df1a4fde98ee17ae345cb5f6b5e2c27f5033e8ce7826040516115469190611c8f565b60405180910390a15050565b60007f01ffc9a7000000000000000000000000000000000000000000000000000000007bffffffffffffffffffffffffffffffffffffffffffffffffffffffff1916827bffffffffffffffffffffffffffffffffffffffffffffffffffffffff1916149050919050565b60008073ffffffffffffffffffffffffffffffffffffffff166115de83610ff7565b73ffffffffffffffffffffffffffffffffffffffff1614159050919050565b50505050565b50505050565b600061162a8473ffffffffffffffffffffffffffffffffffffffff1661185e565b15611783578373ffffffffffffffffffffffffffffffffffffffff1663150b7a02611653610b9a565b8786866040518563ffffffff1660e01b81526004016116759493929190612a5e565b6020604051808303816000875af19250505080156116b157506040513d601f19601f820116820180604052508101906116ae9190612abf565b60015b611733573d80600081146116e1576040519150601f19603f3d011682016040523d82523d6000602084013e6116e6565b606091505b50600081510361172b576040517f08c379a000000000000000000000000000000000000000000000000000000000815260040161172290612601565b60405180910390fd5b805181602001fd5b63150b7a0260e01b7bffffffffffffffffffffffffffffffffffffffffffffffffffffffff1916817bffffffffffffffffffffffffffffffffffffffffffffffffffffffff191614915050611788565b600190505b949350505050565b60606000600161179f84611881565b01905060008167ffffffffffffffff8111156117be576117bd611da0565b5b6040519080825280601f01601f1916602001820160405280156117f05781602001600182028036833780820191505090505b509050600082602001820190505b600115611853578080600190039150507f3031323334353637383961626364656600000000000000000000000000000000600a86061a8153600a858161184757611846612aec565b5b049450600085036117fe575b819350505050919050565b6000808273ffffffffffffffffffffffffffffffffffffffff163b119050919050565b600080600090507a184f03e93ff9f4daa797ed6e38ed64bf6a1f01000000000000000083106118df577a184f03e93ff9f4daa797ed6e38ed64bf6a1f01000000000000000083816118d5576118d4612aec565b5b0492506040810190505b6d04ee2d6d415b85acef8100000000831061191c576d04ee2d6d415b85acef8100000000838161191257611911612aec565b5b0492506020810190505b662386f26fc10000831061194b57662386f26fc10000838161194157611940612aec565b5b0492506010810190505b6305f5e1008310611974576305f5e100838161196a57611969612aec565b5b0492506008810190505b612710831061199957612710838161198f5761198e612aec565b5b0492506004810190505b606483106119bc57606483816119b2576119b1612aec565b5b0492506002810190505b600a83106119cb576001810190505b80915050919050565b6000604051905090565b600080fd5b600080fd5b60007fffffffff0000000000000000000000000000000000000000000000000000000082169050919050565b611a1d816119e8565b8114611a2857600080fd5b50565b600081359050611a3a81611a14565b92915050565b600060208284031215611a5657611a556119de565b5b6000611a6484828501611a2b565b91505092915050565b60008115159050919050565b611a8281611a6d565b82525050565b6000602082019050611a9d6000830184611a79565b92915050565b600081519050919050565b600082825260208201905092915050565b60005b83811015611add578082015181840152602081019050611ac2565b60008484015250505050565b6000601f19601f8301169050919050565b6000611b0582611aa3565b611b0f8185611aae565b9350611b1f818560208601611abf565b611b2881611ae9565b840191505092915050565b60006020820190508181036000830152611b4d8184611afa565b905092915050565b6000819050919050565b611b6881611b55565b8114611b7357600080fd5b50565b600081359050611b8581611b5f565b92915050565b600060208284031215611ba157611ba06119de565b5b6000611baf84828501611b76565b91505092915050565b600073ffffffffffffffffffffffffffffffffffffffff82169050919050565b6000611be382611bb8565b9050919050565b611bf381611bd8565b82525050565b6000602082019050611c0e6000830184611bea565b92915050565b611c1d81611bd8565b8114611c2857600080fd5b50565b600081359050611c3a81611c14565b92915050565b60008060408385031215611c5757611c566119de565b5b6000611c6585828601611c2b565b9250506020611c7685828601611b76565b9150509250929050565b611c8981611b55565b82525050565b6000602082019050611ca46000830184611c80565b92915050565b600080600060608486031215611cc357611cc26119de565b5b6000611cd186828701611c2b565b9350506020611ce286828701611c2b565b9250506040611cf386828701611b76565b9150509250925092565b600060208284031215611d1357611d126119de565b5b6000611d2184828501611c2b565b91505092915050565b611d3381611a6d565b8114611d3e57600080fd5b50565b600081359050611d5081611d2a565b92915050565b60008060408385031215611d6d57611d6c6119de565b5b6000611d7b85828601611c2b565b9250506020611d8c85828601611d41565b9150509250929050565b600080fd5b600080fd5b7f4e487b7100000000000000000000000000000000000000000000000000000000600052604160045260246000fd5b611dd882611ae9565b810181811067ffffffffffffffff82111715611df757611df6611da0565b5b80604052505050565b6000611e0a6119d4565b9050611e168282611dcf565b919050565b600067ffffffffffffffff821115611e3657611e35611da0565b5b611e3f82611ae9565b9050602081019050919050565b82818337600083830152505050565b6000611e6e611e6984611e1b565b611e00565b905082815260208101848484011115611e8a57611e89611d9b565b5b611e95848285611e4c565b509392505050565b600082601f830112611eb257611eb1611d96565b5b8135611ec2848260208601611e5b565b91505092915050565b60008060008060808587031215611ee557611ee46119de565b5b6000611ef387828801611c2b565b9450506020611f0487828801611c2b565b9350506040611f1587828801611b76565b925050606085013567ffffffffffffffff811115611f3657611f356119e3565b5b611f4287828801611e9d565b91505092959194509250565b60008060408385031215611f6557611f646119de565b5b6000611f7385828601611c2b565b9250506020611f8485828601611c2b565b9150509250929050565b600067ffffffffffffffff821115611fa957611fa8611da0565b5b611fb282611ae9565b9050602081019050919050565b6000611fd2611fcd84611f8e565b611e00565b905082815260208101848484011115611fee57611fed611d9b565b5b611ff9848285611e4c565b509392505050565b600082601f83011261201657612015611d96565b5b8135612026848260208601611fbf565b91505092915050565b60008060408385031215612046576120456119de565b5b600061205485828601611c2b565b925050602083013567ffffffffffffffff811115612075576120746119e3565b5b61208185828601612001565b9150509250929050565b7f4e487b7100000000000000000000000000000000000000000000000000000000600052602260045260246000fd5b600060028204905060018216806120d257607f821691505b6020821081036120e5576120e461208b565b5b50919050565b7f4552433732313a20617070726f76616c20746f2063757272656e74206f776e6560008201527f7200000000000000000000000000000000000000000000000000000000000000602082015250565b6000612147602183611aae565b9150612152826120eb565b604082019050919050565b600060208201905081810360008301526121768161213a565b9050919050565b7f4552433732313a20617070726f76652063616c6c6572206973206e6f7420746f60008201527f6b656e206f776e6572206f7220617070726f76656420666f7220616c6c000000602082015250565b60006121d9603d83611aae565b91506121e48261217d565b604082019050919050565b60006020820190508181036000830152612208816121cc565b9050919050565b7f4552433732313a2063616c6c6572206973206e6f7420746f6b656e206f776e6560008201527f72206f7220617070726f76656400000000000000000000000000000000000000602082015250565b600061226b602d83611aae565b91506122768261220f565b604082019050919050565b6000602082019050818103600083015261229a8161225e565b9050919050565b7f4552433732313a20696e76616c696420746f6b656e2049440000000000000000600082015250565b60006122d7601883611aae565b91506122e2826122a1565b602082019050919050565b60006020820190508181036000830152612306816122ca565b9050919050565b7f4552433732313a2061646472657373207a65726f206973206e6f74206120766160008201527f6c6964206f776e65720000000000000000000000000000000000000000000000602082015250565b6000612369602983611aae565b91506123748261230d565b604082019050919050565b600060208201905081810360008301526123988161235c565b9050919050565b600081905092915050565b60006123b582611aa3565b6123bf818561239f565b93506123cf818560208601611abf565b80840191505092915050565b60006123e782856123aa565b91506123f382846123aa565b91508190509392505050565b7f4552433732313a207472616e736665722066726f6d20696e636f72726563742060008201527f6f776e6572000000000000000000000000000000000000000000000000000000602082015250565b600061245b602583611aae565b9150612466826123ff565b604082019050919050565b6000602082019050818103600083015261248a8161244e565b9050919050565b7f4552433732313a207472616e7366657220746f20746865207a65726f2061646460008201527f7265737300000000000000000000000000000000000000000000000000000000602082015250565b60006124ed602483611aae565b91506124f882612491565b604082019050919050565b6000602082019050818103600083015261251c816124e0565b9050919050565b7f4552433732313a20617070726f766520746f2063616c6c657200000000000000600082015250565b6000612559601983611aae565b915061256482612523565b602082019050919050565b600060208201905081810360008301526125888161254c565b9050919050565b7f4552433732313a207472616e7366657220746f206e6f6e20455243373231526560008201527f63656976657220696d706c656d656e7465720000000000000000000000000000602082015250565b60006125eb603283611aae565b91506125f68261258f565b604082019050919050565b6000602082019050818103600083015261261a816125de565b9050919050565b7f4552433732313a206d696e7420746f20746865207a65726f2061646472657373600082015250565b6000612657602083611aae565b915061266282612621565b602082019050919050565b600060208201905081810360008301526126868161264a565b9050919050565b7f4552433732313a20746f6b656e20616c7265616479206d696e74656400000000600082015250565b60006126c3601c83611aae565b91506126ce8261268d565b602082019050919050565b600060208201905081810360008301526126f2816126b6565b9050919050565b7f45524337323155524953746f726167653a2055524920736574206f66206e6f6e60008201527f6578697374656e7420746f6b656e000000000000000000000000000000000000602082015250565b6000612755602e83611aae565b9150612760826126f9565b604082019050919050565b6000602082019050818103600083015261278481612748565b9050919050565b60008190508160005260206000209050919050565b60006020601f8301049050919050565b600082821b905092915050565b6000600883026127ed7fffffffffffffffffffffffffffffffffffffffffffffffffffffffffffffffff826127b0565b6127f786836127b0565b95508019841693508086168417925050509392505050565b6000819050919050565b600061283461282f61282a84611b55565b61280f565b611b55565b9050919050565b6000819050919050565b61284e83612819565b61286261285a8261283b565b8484546127bd565b825550505050565b600090565b61287761286a565b612882818484612845565b505050565b5b818110156128a65761289b60008261286f565b600181019050612888565b5050565b601f8211156128eb576128bc8161278b565b6128c5846127a0565b810160208510156128d4578190505b6128e86128e0856127a0565b830182612887565b50505b505050565b600082821c905092915050565b600061290e600019846008026128f0565b1980831691505092915050565b600061292783836128fd565b9150826002028217905092915050565b61294082611aa3565b67ffffffffffffffff81111561295957612958611da0565b5b61296382546120ba565b61296e8282856128aa565b600060209050601f8311600181146129a1576000841561298f578287015190505b612999858261291b565b865550612a01565b601f1984166129af8661278b565b60005b828110156129d7578489015182556001820191506020850194506020810190506129b2565b868310156129f457848901516129f0601f8916826128fd565b8355505b6001600288020188555050505b505050505050565b600081519050919050565b600082825260208201905092915050565b6000612a3082612a09565b612a3a8185612a14565b9350612a4a818560208601611abf565b612a5381611ae9565b840191505092915050565b6000608082019050612a736000830187611bea565b612a806020830186611bea565b612a8d6040830185611c80565b8181036060830152612a9f8184612a25565b905095945050505050565b600081519050612ab981611a14565b92915050565b600060208284031215612ad557612ad46119de565b5b6000612ae384828501612aaa565b91505092915050565b7f4e487b7100000000000000000000000000000000000000000000000000000000600052601260045260246000fdfea2646970667358221220ab60009d76301f2a1a8135c3f8714ba87440c7013db87d47bef308d2ecc19c3064736f6c63430008180033",
  "linkReferences": {},
  "deployedLinkReferences": {}
}